S01A000052544F535F4C4142315F41544D45474133322E73726563F0
S11300000C943A000C9457000C9457000C9457002D
S11300100C9457000C9457000C9457000C946A03EA
S11300200C9457000C9457000C9457000C945700F0
S11300300C9457000C9457000C9457000C945700E0
S11300400C9457000C9457000C9457000C945700D0
S11300500C945700F800D800DA00DC00DE00E00061
S1130060E200E400E600E800EA00EC00EE00F00044
S1130070F200F40011241FBECFE5D8E0DEBFCDBFEF
S113008010E0A0E6B0E0EAE5F9E102C005900D92C7
S1130090A839B107D9F723E0A8E9B0E001C01D925F
S11300A0A338B207E1F70E9479050C94AB0C0C94C9
S11300B00000811102C06BBB0895813011F468BB4C
S11300C00895823011F465BB0895833009F462BB4E
S11300D00895811102C06ABB0895813011F467BB91
S11300E00895823011F464BB0895833009F461BB30
S11300F00895811109C089B390E002C09595879550
S11301006A95E2F781700895813049F486B390E0EE
S113011002C0959587956A95E2F7817008958230BB
S113012049F483B390E002C0959587956A95E2F708
S113013081700895833049F480B390E002C09595AE
S113014087956A95E2F78170089580E00895CF93CA
S1130150DF93EC010E942F092091980030919900BF
S1130160C9018C0F9D1F883542E0940758F4281765
S1130170390758F4E901C656DF4F909399008093EC
S1130180980005C0C0E0D0E002C0C0E0D0E00E940A
S1130190030ACE01DF91CF910895089590E0FC0108
S11301A03197E031F10510F5E65DFF4F0C944C0CEE
S11301B088E3089589E3089587EF089584E3089513
S11301C085E3089586E3089588E5089581E3089515
S11301D082E3089583E308958DE2089583E4089506
S11301E080E308958DE308958BE208958FEF0895D9
S11301F087E30895BF92CF92DF92EF92FF920F931D
S11302001F93CF93DF9310E06894CC24C4F8D12CCF
S113021033C0BE2CE6010E2C02C0CC0FDD1F0A94A5
S1130220E2F76C2F82E00E9469006C2F609582E0F7
S11302300E945900C0E0D0E00C2FBE0182E090E0A3
S11302400E947900892B59F41F5F193C40F0000F7C
S1130250000F81E08B0D800F0E94CE0011C021960B
S1130260C430D10549F78FEFE81AF80A84E0E8169C
S1130270F10479F6123D18F4E12CF12CCACF8FEF7A
S1130280DF91CF911F910F91FF90EF90DF90CF906E
S1130290BF900895C29889EF90E00197F1F700C0EC
S11302A00000C29A8BED95E00197F1F700C00000C1
S11302B00895CF93C82FC098C19888B38F7088BB16
S11302C088B39C2F907F892B88BB0E944A0188B3F6
S11302D08F7088BB88B3C295C07FC82BC8BB0E94EF
S11302E04A01CF9108958FEF87BB84E088BB83E3F5
S11302F00E94590182E30E94590188E20E94590137
S11303008CE00E9459010895CF93C82FC09AC198D8
S113031088B38F7088BB88B39C2F907F892B88BB50
S11303200E944A0188B38F7088BB88B3C295C07F8E
S1130330C82BC8BB0E944A01CF910895813049F06F
S113034028F0823049F0833051F00CC080E8860FE9
S11303500AC080EC860F07C080E8860F04C080E8DE
S1130360860F01C080E80E945901089581E00E942F
S113037059010895CF93DF93EC018881882331F0EC
S113038021960E94840189918111FBCFDF91CF9145
S11303900895CF93DF93EC01862F642F0E949E0172
S11303A0CE010E94BA01DF91CF910895FC0103961A
S11303B0928381832FEF3FEF348323839683858356
S11303C09087878310820895FC0111861086089512
S11303D0CF93DF93FC01DB0121813281E9018A8122
S11303E09B8113969C938E9312978181928115968B
S11303F09C938E9314978A819B81EC017D836C83FB
S1130400E9017B836A83728361831996FC93EE937B
S1130410189780818F5F8083DF91CF910895CF9368
S1130420DF93EB01488159814F3F2FEF520731F49D
S1130430DC011796ED91FC91189717C0FC013396D7
S1130440DC0115962D913C911697D9012D913C9183
S11304504217530750F00280F381E02DA281B3814B
S11304602D913C9142175307B0F7A281B381BB830E
S1130470AA831596DC93CE931497FD83EC83D383E0
S1130480C28399878887FC0120812F5F2083DF91B5
S1130490CF910895FC01A281B38184819581159641
S11304A09C938E931497A481B58182819381139632
S11304B09C938E931297A085B18511968D919C91F2
S11304C01297E817F90731F48481958112969C9369
S11304D08E931197118610868C9181508C93089578
S11304E031E1FC013083319722E220833197A3E389
S11304F0A08331976083319770833197108231974D
S113050060E8608331971082319762E060833197AD
S113051063E06083319764E06083319765E06083D2
S1130520319766E06083319767E06083319768E0D4
S11305306083319769E06083319760E1608331972C
S11305403083319732E13083319733E1308331970F
S113055034E13083319735E13083319736E13083AC
S1130560319737E13083319738E13083319739E17E
S11305703083319730E23083319731E230833197E1
S11305802083319723E2208331974083319750832E
S1130590319726E22083319727E22083319728E29E
S11305A02083319729E22083319720E320833197F8
S11305B021E32083869708951BBC8CE78ABD8BE0DA
S11305C08EBD89B7806189BFA0917B03B0917C0304
S11305D0CD91CDBFDD91DEBFFF91EF91DF91CF9142
S11305E0BF91AF919F918F917F916F915F914F9147
S11305F03F912F911F910F91FF90EF90DF90CF903B
S1130600BF90AF909F908F907F906F905F904F902E
S11306103F902F901F900F900FBE0F90089581E090
S113062008950F920FB6F8940F921F9211242F92EF
S11306303F924F925F926F927F928F929F92AF926E
S1130640BF92CF92DF92EF92FF920F931F932F935B
S11306503F934F935F936F937F938F939F93AF9346
S1130660BF93CF93DF93EF93FF93A0917B03B0915C
S11306707C030DB60D920EB60D920E94240BA09130
S11306807B03B0917C03CD91CDBFDD91DEBFFF91A3
S1130690EF91DF91CF91BF91AF919F918F917F9116
S11306A06F915F914F913F912F911F910F91FF9007
S11306B0EF90DF90CF90BF90AF909F908F907F90FE
S11306C06F905F904F903F902F901F900F900FBEB0
S11306D00F9008951F920F920FB60F9211242F932B
S11306E03F934F935F936F937F938F939F93AF93B6
S11306F0BF93EF93FF930E943F09FF91EF91BF9146
S1130700AF919F918F917F916F915F914F913F91A5
S11307102F910F900FBE0F901F901895CF93DF93DA
S1130720EC018C8D8823A9F1411117C0482F50E0AA
S11307308C819D810E94840C2C8D8C819D81820FE3
S1130740911D9D838C832A813B818217930708F135
S1130750888199819D838C831CC0482F50E08E81B1
S11307609F810E94840C8C8D90E0919581959109D4
S11307702E813F81280F391F3F832E834881598161
S11307802417350730F42A813B81820F931F9F83FE
S11307908E838A8D8F5F8A8FDF91CF910895FC01BC
S11307A0808191810097A1F0448D50E026813781AA
S11307B0240F351F37832683A281B3812A173B0771
S11307C010F097838683CB01668177810E94840C25
S11307D008950F931F93CF93DF93EC010FB6F89412
S11307E00F928E8D1816B4F48989811105C012C038
S11307F08989811104C00EC08E010F5E1F4FC8018C
S11308000E94AD0B81110E94340C8E8D81508E8F0D
S1130810181674F38FEF8E8F0F900FBE0FB6F894E7
S11308200F928D8D1816B4F48885811105C012C0FD
S11308308885811104C00EC08E01085F1F4FC80156
S11308400E94AD0B81110E94340C8D8D81508D8FCF
S1130850181674F38FEF8D8F0F900FBEDF91CF9129
S11308601F910F9108959F92AF92BF92CF92DF9202
S1130870EF92FF920F931F93CF93DF9300D000D09A
S11308801F92CDB7DEB78C016B015D834C83922E32
S1130890B12CAA24A3947C0188E0E80EF11C0FB6C5
S11308A0F8940F92F801928D838D9817A8F4492D2E
S11308B0B601C8010E948E03F8018189882341F0A2
S11308C0C80141960E94AD0B813011F40E941103BE
S11308D00F900FBE81E050C08C819D81892B21F443
S11308E00F900FBE80E048C0B11005C0CE01019644
S11308F00E94F20BBA2C0F900FBE0E942F090FB664
S1130900F8940F92F801858D8F3F09F4158EF80144
S1130910868D8F3F09F4168E0F900FBEBE016C5F5B
S11309207F4FCE0101960E94FD0B81111FC00FB6AF
S1130930F8940F92F801928D0F900FBE838D981347
S11309400FC06C817D81C7010E94900BC8010E9479
S1130950E9030E94030A8111A2CF0E9411039FCFD1
S1130960C8010E94E9030E94030A99CFC8010E94AA
S1130970E9030E94030A80E00F900F900F900F90FC
S11309800F90DF91CF911F910F91FF90EF90DF9027
S1130990CF90BF90AF909F9008959F92AF92BF92D7
S11309A0CF92DF92EF92FF920F931F93CF93DF9337
S11309B000D000D01F92CDB7DEB78C016B015D83F0
S11309C04C83922EB12CAA24A3947C0181E1E80EDD
S11309D0F11C0FB6F8940F92F801828D882349F127
S11309E0E680F780B601C8010E94CF03911010C0C1
S11309F0F801828D8150828F80858823B1F0C801EF
S1130A0008960E94AD0B813081F40E9411030DC041
S1130A10F801F782E6828189882339F0C80141967A
S1130A200E94AD0B81110E9411030F900FBE81E053
S1130A304FC08C819D81892B21F40F900FBE80E0E3
S1130A4047C0B11005C0CE0101960E94F20BBA2C2A
S1130A500F900FBE0E942F090FB6F8940F92F80161
S1130A60858D8F3F09F4158EF801868D8F3F09F42B
S1130A70168E0F900FBEBE016C5F7F4FCE010196A4
S1130A800E94FD0B81111EC00FB6F8940F92F8015D
S1130A90828D0F900FBE81110FC06C817D81C701C3
S1130AA00E94900BC8010E94E9030E94030A81116D
S1130AB090CF0E9411038DCFC8010E94E9030E94C8
S1130AC0030A87CFC8010E94E9030E94030A80E059
S1130AD00F900F900F900F900F90DF91CF911F9177
S1130AE00F91FF90EF90DF90CF90BF90AF909F90C9
S1130AF00895AF92BF92CF92DF92EF92FF920F933D
S1130B00CF93DF9300D000D0CDB7DEB70E9473013E
S1130B108FEF8ABBA12CB12CC12CD12CCE01019614
S1130B207C0102E020E030E044E650E060E070E068
S1130B308CE196E00E94FB07CE0103967C0101E064
S1130B4020E030E044E650E060E070E080E897E0C8
S1130B500E94FB070E94040980E090E00F900F9030
S1130B600F900F90DF91CF910F91FF90EF90DF9056
S1130B70CF90BF90AF9008950F931F93CF93DF93BF
S1130B8000D0CDB7DEB70E9435099A83898300E08F
S1130B9010E062E370E0CE0101960E94880A0E9490
S1130BA0B601A80160E070E083E690E00E94C9010C
S1130BB00F5F1F4F0A30110561F709E010E062E38F
S1130BC070E0CE0101960E94880A0E94B601A80135
S1130BD060E070E083E690E00E94C90101501109D1
S1130BE071F70F900F90DF91CF911F910F9108959E
S1130BF0CF93DF9300D0CDB7DEB70E9435099A8337
S1130C0089830E94B6016AEF70E0CE0101960E94CA
S1130C10880A8BE690E00E94BA0140E050E061E06F
S1130C2070E089E790E00E94C90164EF71E0CE01B1
S1130C3001960E94880AE5CFCF93DF9300D0CDB709
S1130C40DEB70E9435099A83898388E60E9484016D
S1130C5064E670E0CE0101960E94880A20E04FEF1E
S1130C605FEF60E070E080917F03909180030E94C9
S1130C70CD040E94FA00833659F720E040E050E0AA
S1130C8060E070E080917F03909180030E943304C0
S1130C900E94BC050E94BC050E94BC050E94F80588
S1130CA0EF92FF920F931F93CF93DF93CDB7DEB7ED
S1130CB060970FB6F894DEBF0FBECDBF16161706A9
S1130CC074F48E010F5F1F4F7801E60EF71EF801D2
S1130CD081918F010E9484010E151F05C1F7609652
S1130CE00FB6F894DEBF0FBECDBFDF91CF911F9139
S1130CF00F91FF90EF90089520E04FEF5FEF60E0D9
S1130D0070E080917F03909180030E94CD04813034
S1130D1009F0F5C080917F03909180039C012053DA
S1130D2031092A30310560F56091190380E00E9491
S1130D309E01809119038F5F8093190380917F0333
S1130D400E9484018091180381110DC080911703C2
S1130D50E82FF0E0E95FFC4F90917F0390838F5F71
S1130D6080931703089580910603E82FF0E0EA507A
S1130D70FD4F90917F0390838F5F809306030895C6
S1130D808D33910509F090C087E093E00E94660CD2
S1130D909093F5028093F40286EF92E00E94660C31
S1130DA0BC01809160008B3249F018F48A32E1F082
S1130DB061C08D3271F08F3239F15CC08091F402E0
S1130DC09091F502680F791F7093F3026093F20219
S1130DD051C08091F4029091F502861B970B909379
S1130DE0F3028093F20246C02091F4023091F5029E
S1130DF0269FC001279F900D369F900D112490933C
S1130E00F3028093F20236C06115710549F540E0A2
S1130E1050E060E070E085E890E00E94C90184EF52
S1130E2091E00E94D20A0E94B60180E30E948401EC
S1130E30109219031092180310921703E7E0F3E0DD
S1130E40A6EFB2E087E193E011921D92E817F9074B
S1130E50D9F7109206031092F3021092F2020AC01C
S1130E608091F4029091F5020E94380C7093F30281
S1130E706093F2020E94B601809117036091060309
S1130E8070E0680F711D8091F2029091F3020E944C
S1130E905006E6EFF2E086E093E011928E179F078A
S1130EA0E1F710920603089583349105E9F40E9452
S1130EB0B60180E30E948401109219031092180372
S1130EC010921703E7E0F3E0A6EFB2E087E193E0C6
S1130ED011921D92E817F907D9F7109206031092A0
S1130EE0F3021092F20208950E94B60110921903BF
S1130EF080917F038093600081E0809318030895BC
S1130F00CF93DF9300D0CDB7DEB70E9435099A8323
S1130F10898364E670E0CE0101960E94880A20E08D
S1130F204FEF5FEF60E070E080917D0390917E036E
S1130F300E94CD04813069F780917F0390918003F2
S1130F408059904031F764E670E0CE0101960E942A
S1130F50880A20E04FEF5FEF60E070E080917D034E
S1130F6090917E030E94CD04813069F70E947C0633
S1130F7020E040E050E060E070E080917D039091DB
S1130F807E030E943304DFCFCF93DF93EC01E09123
S1130F907B03F0917C03938382838091220390915D
S1130FA02303C817D90768F460917B0370917C030D
S1130FB080913803909139036E5F7F4F0E940F0236
S1130FC017C060917B0370917C0380913A039091E8
S1130FD03B036E5F7F4F0E940F02809161009091EE
S1130FE06200C817D90720F4D0936200C09361004F
S1130FF0DF91CF9108954F925F926F927F928F927B
S11310009F92AF92BF92CF92DF92EF92FF920F9393
S11310101F93CF93DF935C014B01EA01290181E225
S113102090E00E94A7003C01009709F4DBC0C114C2
S1131030D10409F0D2C0CE010E94A700F301908F21
S1131040878B009721F4C3010E94CD00CBC0AE0171
S113105065EA70E00E948D0C2197F3018789908DD9
S1131060C80FD91F48E050E0B401C30149960E945B
S1131070940CF30110A2102F053008F014E0F301D2
S1131080168B6301F2E0CF0ED11CC6010E94E4016D
S1131090C3010C960E94E401F3017186608685E029
S11310A090E0811B910995878487738A628AA201E3
S11310B0B501CE010E947002F30191838083E11493
S11310C0F10419F0F701718260820FB6F8940F925F
S11310D0809124038F5F8093240380917B039091FC
S11310E07C03892BA1F570927C0360927B03809131
S11310F024038130D9F5CEE4D3E00F2EFBE7EF2EA5
S1131100F3E0FF2EF02DCE010E94D6012996CE15D4
S1131110DF05C9F785E493E00E94D6018CE393E0F0
S11311200E94D6018FE293E00E94D60186E293E00A
S11311300E94D60185E493E090933B0380933A03A5
S11311408CE393E090933903809338030FC080912C
S11311501F0381110BC0E0917B03F0917C0386890E
S1131160081720F070927C0360927B03F301868958
S113117090912103981710F48093210390911A03FE
S11311809F5F90931A0390912003981710F4809313
S1131190200390E09C01220F331F220F331F220FE4
S11311A0331F820F931FB601825B9C4F0E94E8019C
S11311B00F900FBE80911F03882359F0E0917B03A9
S11311C0F0917C038689801730F40E94110381E03A
S11311D00AC081E008C081E006C0FC01D08EC78A45
S11311E0C60135CF8FEFDF91CF911F910F91FF9003
S11311F0EF90DF90CF90BF90AF909F908F907F90B3
S11312006F905F904F900895AF92BF92CF92DF920C
S1131210EF92FF920F93A12CB12CC12CD12CE12C75
S1131220F12C00E020E030E045E550E062E970E0B8
S113123082EF9AE00E94FB07813049F4F89480938E
S11312401F0310922303109222030E94DC020F91C9
S1131250FF90EF90DF90CF90BF90AF900895809172
S11312601E038F5F80931E0308950FB6F8940F92A8
S113127080912203909123030F900FBE08950F9342
S11312801F93CF93DF9380911E038111B2C080918D
S113129022039091230301969093230380932203C6
S11312A08091220390912303892B99F580913A032D
S11312B090913B03209138033091390330933B03E1
S11312C020933A03909339038093380380911B034E
S11312D08F5F80931B03E0913A03F0913B0380817D
S11312E0811107C08FEF9FEF90936200809361009C
S11312F010C0E0913A03F0913B030580F681E02DA4
S11313000680F781E02D828193819093620080931F
S11313106100209122033091230380916100909118
S113132062002817390708F469C0E0913A03F09184
S11313303B038081882399F0E0913A03F0913B03C9
S11313400580F681E02DC681D7818A819B81209119
S113135022033091230328173907F8F419C08FEFBB
S11313609FEF909362008093610048C0E0913A033C
S1131370F0913B030580F681E02DC681D7818A81F7
S11313809B8120912203309123032817390728F4E5
S1131390909362008093610031C08E010E5F1F4FF5
S11313A0C8010E944A028C899D89892B21F0CE01B3
S11313B00C960E944A028E8990912003981710F48B
S11313C08093200390E09C01220F331F220F331FD0
S11313D0220F331F820F931FB801825B9C4F0E9420
S11313E0E801E0913A03F0913B0380818111BECF83
S11313F0B6CF80911D038F5F80931D03DF91CF9142
S11314001F910F910895CF92DF92EF92FF920F9365
S11314101F93CF93DF930FB6F8940F9280911E031E
S1131420815080931E0380911E03811163C08091BB
S11314302403811132C061C0D7011596ED91FC914E
S11314401697C681D781CE010C960E944A028E015E
S11314500E5F1F4FC8010E944A028E89909120039B
S1131460981710F48093200390E09C01220F331FFF
S1131470220F331F220F331F820F931FB801825B89
S11314809C4F0E94E801E0917B03F0917C039E89CC
S11314908689981758F0DC2C09C0D12C0F2EFFE256
S11314A0EF2EF3E0FF2EF02DCC24C394F7018081BE
S11314B08111C2CF80911D03882379F080911D038F
S11314C0882359F00E943F0980911D038150809325
S11314D01D0380911D038111F5CFF1E0DF1621F08A
S11314E080911C03813041F410921C030E9411036B
S11314F081E003C080E001C080E00F900FBEDF9167
S1131500CF911F910F91FF90EF90DF90CF900895AE
S11315100F931F93CF93DF938C01EB010E942F094C
S1131520F80180819181C80FD91F20912203309145
S113153023032817390768F4C817D90750F5809191
S1131540220390912303D183C0838C179D07B0F4A9
S11315500BC0C817D907C8F08091220390912303C8
S11315608C179D0790F015C080917B0390917C03AC
S113157002960E944A02CE010E94C4070E94030AF6
S113158081110BC00E94110308C0F801D183C083EC
S1131590EBCFF801D183C083F1CFDF91CF911F91BD
S11315A00F910895CF93DF93EC01892BB1F00E9442
S11315B02F098091220390912303C80FD91F809192
S11315C07B0390917C0302960E944A02CE010E9402
S11315D0C4070E94030A811102C00E941103DF9113
S11315E0CF91089506E213E080912503882349F101
S11315F00E942F09D801CC910E94030ACC2309F13F
S11316000FB6F8940F92D8011596ED91FC911697A8
S1131610C681D781CE0102960E944A02809124039A
S11316208150809324038091250381508093250366
S11316300F900FBE8F89988D0E94CD00CE010E941D
S1131640CD000E941103D0CF80911E03811113C0DD
S11316508091200390E0FC01EE0FFF1FEE0FFF1FAF
S1131660EE0FFF1F8E0F9F1FFC01E25BFC4F80817A
S1131670882329F01BC081E080931C030895809186
S113168020038150809320038091200390E0FC018B
S1131690EE0FFF1FEE0FFF1FEE0FFF1F8E0F9F1F9A
S11316A0FC01E25BFC4F8081882349F38091200395
S11316B090E09C01220F331F220F331F220F331F90
S11316C0280F391FD901A25BBC4F1196ED91FC91F3
S11316D012970280F381E02D1296FC93EE931197FA
S11316E02F5A3C4FE217F30729F422813381FD017D
S11316F032832183FC01EE0FFF1FEE0FFF1FEE0F5D
S1131700FF1F8E0F9F1FFC01E25BFC4F0180F281E3
S1131710E02D8681978190937C0380937B030895C9
S1131720CF93DF93EB0160917B0370917C03645F43
S11317307F4F0E940F0280917B0390917C0302965D
S11317400E944A0280912203909123038C0F9D1FD3
S11317500E94C407DF91CF9108950F931F93CF93F5
S1131760DF93DC011596ED91FC911697C681D78124
S11317708E01045F1F4FC8010E944A0280911E031C
S113178081111CC00A501109C8010E944A028E89A5
S113179090912003981710F48093200390E09C010B
S11317A0220F331F220F331F220F331F820F931F69
S11317B0B801825B9C4F0E94E80105C0B8018FE22A
S11317C093E00E94E801E0917B03F0917C0381E0C7
S11317D02E899689291708F480E0DF91CF911F9113
S11317E00F91089520911B03FC0120832091220373
S11317F030912303328321830895FC010FB6F894BA
S11318000F9280911B039081981749F080912203D5
S1131810909123032181328182179307F8F48091F8
S113182022039091230341815281DB012D913C914C
S11318301197841B950B8217930790F4CF01E091C5
S11318402203F0912303BF01641B750B261B370B86
S11318502D933C930E94F20B80E003C081E001C011
S113186081E00F900FBE089581E080931C030895DA
S113187097FB072E16F4009407D077FD09D00E9439
S1131880520C07FC05D03EF4909581959F4F089526
S1131890709561957F4F0895EE0FFF1F0590F491A9
S11318A0E02D0994AA1BBB1B51E107C0AA1FBB1F53
S11318B0A617B70710F0A61BB70B881F991F5A95D8
S11318C0A9F780959095BC01CD010895FC01882766
S11318D09927E89421912032E9F3293010F02E3031
S11318E0C8F32B3241F02D3239F4689404C00E94BD
S11318F0A30C820F911D219120532A30C0F31EF4B2
S1131900909581959F4F0895FB01DC0102C00190E1
S11319100D9241505040D8F70895DC0101C06D93F9
S113192041505040E0F70895FB01DC014150504024
S113193048F001900D920020C9F701C01D9241505A
S11319405040E0F708957AE0979F902D879F802D6F
S10D1950910D11240895F894FFCFBF
S113195A01FFFF77656C636F6D6500507265737381
S113196A20616E79204B657900746F20436F6E7421
S113197A696E7565004D617468204572726F7200F4
S10B198A430049444C450000F0
S9030000FC
