:100000000C942A000C9447000C9447000C94470071
:100010000C9447000C9447000C9447000C941F0567
:100020000C9447000C9447000C9447000C94470034
:100030000C9447000C9447000C9447000C94470024
:100040000C9447000C9447000C9447000C94470014
:100050000C94470011241FBECFE5D8E0DEBFCDBF12
:1000600010E0A0E6B0E0E6E5FBE102C005900D92ED
:10007000AC38B107D9F713E0ACE8B0E001C01D928D
:10008000A237B107E1F70E9457080C94A90D0C9410
:100090000000AF92BF92CF92DF92EF92FF920F9348
:1000A0001F93CF93DF936C01F62EE42E8AE190E04C
:1000B0000E948002082F192F0115110509F463C051
:1000C00080918C0090918D00009739F510938D00F0
:1000D00000938C00C8E9D0E0CE010E944C03CE0111
:1000E00009960E944C03C4EBD0E0CE010E944C0361
:1000F0000F2EFDEBAF2EF0E0BF2EF02DC5010E94BC
:100100004C038EE890E00E944C03D093B100C09362
:10011000B000B092B300A092B200FF2011F0FF2413
:10012000F394F801118E108EF68AE78AE801C992DD
:10013000D992CE010E945A03C8010C960E945A031C
:10014000F80111870087138B028B83E090E08F19F1
:10015000910995878487868990919700981710F464
:100160008093970090E09C01220F331F220F331FD2
:10017000220F331F820F931F88569F4FBE010E948C
:100180005E0381E001C08FEFDF91CF911F910F914E
:10019000FF90EF90DF90CF90BF90AF9008950F93B6
:1001A0001F93CF93DF938B01C091AE00D091AF002E
:1001B000C80FD91F80918C0090918D0002960E94EB
:1001C000C40360918C0070918D00FB01D383C283C6
:1001D0008091AE009091AF00C817D90748F46E5FC8
:1001E0007F4F8091B2009091B3000E94850308C0B8
:1001F0006E5F7F4F8091B0009091B1000E948503A7
:100200000115110549F060918C0070918D00645FBB
:100210007F4FC8010E948503DF91CF911F910F91FD
:100220000895CF92DF92EF92FF920F931F93CF9397
:10023000DF9380918E008823B9F10F2EF3E9EF2E22
:10024000F0E0FF2EF02D0F2EFEE8CF2EF0E0DF2E97
:10025000F02DF894D701ED91FC91C681D781CE01A4
:100260000C960E94C40378948E010E5F1F4FC80144
:100270000E94C4038E8990919700981710F4809380
:10028000970090E09C01220F331F220F331F220F93
:10029000331F820F931F88569F4FB8010E945E0341
:1002A000F60180818823A9F60E945F0A2091AA00A6
:1002B0003091AB00821B930B9093AD008093AC0008
:1002C00074C02091AE003091AF002F5F3F4F30934C
:1002D000AF002093AE0001979093AD008093AC00E7
:1002E0002115310581F48091B0009091B1002091E9
:1002F000B2003091B3003093B1002093B0009093DE
:10030000B3008093B200E091B000F091B100808121
:10031000882309F44AC00580F681E02DC681D78183
:100320002A813B818091AE009091AF0082179307A4
:1003300078F43BC00580F681E02DC681D7812A8103
:100340003B818091AE009091AF008217930768F1D6
:10035000F8948E010E5F1F4FC8010E94C4038C8960
:100360009D89009721F0CE010C960E94C4037894D9
:100370008E8990919700981710F48093970090E0E1
:100380009C01220F331F220F331F220F331F820FB6
:10039000931F88569F4FB8010E945E03E091B00002
:1003A000F091B1008081882329F68091AC00909172
:1003B000AD00009709F085CF8091AE009091AF001D
:1003C0009093AB008093AA0040919700842F90E017
:1003D000FC01EE0FFF1FEE0FFF1FEE0FFF1FE80FD8
:1003E000F91FE856FF4F20812223E9F4442331F41A
:1003F00057C0442329F44093970052C028E930E0C5
:100400004150842F90E0FC01EE0FFF1FEE0FFF1F05
:10041000EE0FFF1FE80FF91FE20FF31F5081552366
:1004200041F3409397009C01220F331F220F331F8B
:10043000220F331F280F391FD901A856BF4F11961D
:10044000ED91FC9112970280F381E02D1296FC93BE
:10045000EE93119725563F4FE217F30729F42281B7
:100460003381FD0132832183FC01EE0FFF1FEE0F6C
:10047000FF1FEE0FFF1F8E0F9F1FFC01E856FF4F5F
:100480000180F281E02DA681B781B0938D00A09309
:100490008C00ED91FC911197CD0157966C910995C7
:1004A000DF91CF911F910F91FF90EF90DF90CF9050
:1004B00008950F931F93CF93DF93DC011596ED9171
:1004C000FC91169706811781E8012C96CE010E94B7
:1004D000C4038EE890E0BE010E945E03E0918C00B0
:1004E000F0918D0081E0D80156962C91569796890F
:1004F000291708F480E0DF91CF911F910F910895A3
:10050000EF92FF920F931F93CF93DF938C010E9482
:10051000590AC091C600D091C7000C0F1D1F22E0E0
:100520000835120750F4C017D10750F4C853DF4FF5
:100530001093C7000093C60005C0C0E0D0E002C021
:10054000C0E0D0E00E943B0B7E018C2F9F2DDF91FD
:10055000CF911F910F91FF90EF9008950895109201
:10056000C7001092C60008958091C6009091C70000
:1005700028E532E0281B390B822F932F0895C2986B
:1005800089EF90E00197F1F700C00000C29A8BED6F
:1005900095E00197F1F700C0000008951F93182F10
:1005A000C098C19888B38F7088BB88B3912F907F13
:1005B000892B88BB0E94BF0288B38F7088BB88B329
:1005C0001295107F182B18BB0E94BF021F9108952F
:1005D0008FEF87BB84E088BB83E30E94CE0282E377
:1005E0000E94CE0288E20E94CE028CE00E94CE02DF
:1005F00008951F93182FC09AC19888B38F7088BB35
:1006000088B3912F907F892B88BB0E94BF0288B34B
:100610008F7088BB88B31295107F182B18BB0E946F
:10062000BF021F910895813051F0813028F082304F
:1006300049F0833069F409C0862F80580AC0862F9C
:10064000805407C0862F805804C0862F805801C070
:1006500080E80E94CE02089581E00E94CE020895B3
:10066000CF93DF93EC018881882331F021960E949B
:10067000F90289918823D9F7DF91CF910895CF931B
:10068000DF93EC01862F642F0E941303CE010E949A
:100690003003DF91CF910895FC010396928381830B
:1006A0002FEF3FEF3483238396838583908787835F
:1006B00010820895FC01118610860895CF93DF9370
:1006C000FC01DB0121813281E9018A819B81139642
:1006D0009C938E9312978181928115969C938E9311
:1006E00014978A819B81EC017D836C83E9017B8374
:1006F0006A83728361831996FC93EE9318978081C5
:100700008F5F8083DF91CF910895CF93DF93FC01BA
:10071000DB012D913C911197BFEF2F3F3B0719F45F
:10072000A781B08518C0DC0113961296CD91DC919B
:100730001397888199812817390768F012960D90D0
:10074000BC91A02D1296CD91DC911397888199814F
:100750002817390798F712968D919C911397EB0102
:100760009B838A83EC017D836C83EB01BD83AC8327
:1007700013967C936E931297F987E88780818F5F39
:100780008083DF91CF910895FC01A281B3818481A0
:10079000958115969C938E931497A481B58182813F
:1007A000938113969C938E931297A085B185119691
:1007B0008D919C9112978E179F0731F484819581BA
:1007C00012969C938E931197118610868C9181506E
:1007D0008C93089521E1FC01208392E2929383E3BC
:1007E000829362937293129280E88293129282E0D3
:1007F000829383E0829384E0829385E0829386E013
:10080000829387E0829388E0829389E0829380E1FB
:100810008293229382E1829383E1829384E18293A3
:1008200085E1829386E1829387E1829388E18293D6
:1008300089E1829380E2829381E28293929383E2C0
:1008400082934293529386E2829387E2829388E274
:10085000829389E2829380E3829381E382939F0172
:1008600021503040822F932F08951BBC8CE78ABD06
:100870008BE08EBD89B7806189BFA0912103B091C3
:100880002203CD91CDBFDD91DEBFFF91EF91DF91CE
:10089000CF91BF91AF919F918F917F916F915F9118
:1008A0004F913F912F911F910F91FF90EF90DF900B
:1008B000CF90BF90AF909F908F907F906F905F9000
:1008C0004F903F902F901F900F900FBE0F90089564
:1008D00081E0089508950F920FB6F8940F921F9239
:1008E00011242F923F924F925F926F927F928F923C
:1008F0009F92AF92BF92CF92DF92EF92FF920F93AF
:100900001F932F933F934F935F936F937F938F9397
:100910009F93AF93BF93CF93DF93EF93FF93A091F8
:100920002103B09122030DB60D920EB60D920E94D6
:10093000740CA0912103B0912203CD91CDBFDD9124
:10094000DEBFFF91EF91DF91CF91BF91AF919F916A
:100950008F917F916F915F914F913F912F911F9157
:100960000F91FF90EF90DF90CF90BF90AF909F904E
:100970008F907F906F905F904F903F902F901F903F
:100980000F900FBE0F9008950F920FB6F8940F922C
:100990001F9211242F923F924F925F926F927F92FB
:1009A0008F929F92AF92BF92CF92DF92EF92FF927F
:1009B0000F931F932F933F934F935F936F937F9367
:1009C0008F939F93AF93BF93CF93DF93EF93FF9357
:1009D000A0912103B09122030DB60D920EB60D9297
:1009E0000E94750A0E94740CA0912103B091220309
:1009F000CD91CDBFDD91DEBFFF91EF91DF91CF9122
:100A0000BF91AF919F918F917F916F915F914F9126
:100A10003F912F911F910F91FF90EF90DF90CF901A
:100A2000BF90AF909F908F907F906F905F904F900E
:100A30003F902F901F900F900FBE0F9008950E942F
:100A4000C4041895CF93DF93FC01A081B181109766
:100A5000B9F0448D26813781240F311D37832683D9
:100A6000C281D3812C173D0710F0B783A68336814E
:100A70002781862F972F632F722F50E00E948A0DB7
:100A8000DF91CF910895CF93DF93EC012C8D22233A
:100A9000A9F14423B9F48C819D81422F50E00E943A
:100AA0008A0D2C8D8C819D81820F911D9D838C835D
:100AB0002A813B818217930708F1888199819D8360
:100AC0008C831CC08E819F81422F50E00E948A0D32
:100AD0002C8D30E0309521953F4F8E819F81820F84
:100AE000931F9F838E83488159818417950730F423
:100AF0008A819B81280F391F3F832E838A8D8F5FC8
:100B00008A8FDF91CF9108950F931F93CF93DF9337
:100B1000EC010FB6F8940F928E8D1816BCF48989EB
:100B2000882329F413C08989882321F40FC08E01FA
:100B30000F5E1F4FC8010E94FF0C882311F00E9416
:100B4000860D8E8D81508E8F18166CF38FEF8E8FE1
:100B50000F900FBE0FB6F8940F928D8D1816BCF43F
:100B60008885882329F413C08885882321F40FC041
:100B70008E01085F1F4FC8010E94FF0C882311F0EF
:100B80000E94860D8D8D81508D8F18166CF38FEF1E
:100B90008D8F0F900FBEDF91CF911F910F91089510
:100BA0008F929F92AF92BF92CF92DF92EF92FF927D
:100BB0000F931F93CF93DF93182F062F882309F4E9
:100BC00049C08FE190E00E948002E82EF92EE701F3
:100BD000209709F442C0A12EBB24802E99248A9C20
:100BE00060018B9CD00C9A9CD00C1124C6010196FC
:100BF0000E948002282F392F39832883211531053F
:100C000019F1C20ED31EDB82CA821A8E3D832C8359
:100C10000894A108B108A89CC001A99C900DB89C9B
:100C2000900D1124280F391F3F832E831B8F0C8FAB
:100C30008FEF8D8F8E8FCE0108960E944C03CE01D0
:100C400041960E944C030BC0CE010E94AE02C0E050
:100C5000D0E005C0C0E0D0E002C0C0E0D0E07E013E
:100C60008C2F9F2DDF91CF911F910F91FF90EF90CF
:100C7000DF90CF90BF90AF909F908F9008955F923C
:100C80006F927F928F929F92AF92BF92CF92DF929C
:100C9000EF92FF920F931F93DF93CF9300D000D07A
:100CA0000F92CDB7DEB78C013B015D834C83522E92
:100CB000DD247E010894E11CF11CCC24C394AA24F9
:100CC000BB246894A2F8AC0EBD1E882499246894B5
:100CD00083F8880E991E0FB6F8940F92F801928D42
:100CE000838D9817A8F4C801B301452D0E944305D0
:100CF000F8018189882341F0C80141960E94FF0CC8
:100D0000813011F40E946B040F900FBE81E04EC041
:100D10008C819D81009721F40F900FBE80E046C02A
:100D2000DD2021F4C7010E94450DDC2C0F900FBE81
:100D30000E94590A0FB6F8940F92F801858D8F3FE3
:100D400009F4158EF801868D8F3F09F4168E0F90E9
:100D50000FBEC701B5010E94500D882309F50FB6DB
:100D6000F8940F92F801928D0F900FBEF801838DC9
:100D7000981781F46C817D81C4010E94E20CC80146
:100D80000E9484050E943B0B882309F0A4CF0E9497
:100D90006B04A1CFC8010E9484050E943B0B9BCF2E
:100DA000C8010E9484050E943B0B80E00F900F90C9
:100DB0000F900F900F90CF91DF911F910F91FF90A7
:100DC000EF90DF90CF90BF90AF909F908F907F90EB
:100DD0006F905F9008950F931F93CF93DF93EC0173
:100DE0008A019A8D8B8D9817C0F4CE01422F0E94F4
:100DF00043058E8D8F3F69F48989882381F0CE0168
:100E000041960E94FF0C882361F081E0F801808305
:100E100009C08F5F8E8F81E005C080E003C081E054
:100E200001C081E0DF91CF911F910F9108955F92F2
:100E30006F927F928F929F92AF92BF92CF92DF92EA
:100E4000EF92FF920F931F93DF93CF9300D000D0C8
:100E50000F92CDB7DEB78C013B015D834C83522EE0
:100E6000DD247E010894E11CF11CCC24C394AA2447
:100E7000BB246894A2F8AC0EBD1E0F2EF1E18F2E9C
:100E80009924F02D880E991E0FB6F8940F92F80150
:100E9000828D882351F1E680F780C801B3010E945A
:100EA0002205552081F4F801828D8150828F808542
:100EB0008823B9F0C80108960E94FF0C813089F49C
:100EC0000E946B040EC0F801F782E68281898823B4
:100ED00041F0C80141960E94FF0C882311F00E9446
:100EE0006B040F900FBE81E04CC08C819D810097F8
:100EF00021F40F900FBE80E044C0DD2021F4C70133
:100F00000E94450DDC2C0F900FBE0E94590A0FB6AF
:100F1000F8940F92F801858D8F3F09F4158EF80132
:100F2000868D8F3F09F4168E0F900FBEC701B50155
:100F30000E94500D8823F9F40FB6F8940F92F8012F
:100F4000828D0F900FBE882381F46C817D81C40156
:100F50000E94E20CC8010E9484050E943B0B88237A
:100F600009F092CF0E946B048FCFC8010E948405C4
:100F70000E943B0B89CFC8010E9484050E943B0B55
:100F800080E00F900F900F900F900F90CF91DF9116
:100F90001F910F91FF90EF90DF90CF90BF90AF9097
:100FA0009F908F907F906F905F9008950F931F9305
:100FB000CF93DF93EC018A018A8D8823D1F0CE0193
:100FC0000E9422058A8D81508A8F8D8D8F3F69F412
:100FD0008885882381F0CE0108960E94FF0C882323
:100FE00061F081E0F801808309C08F5F8D8F81E01F
:100FF00005C080E003C081E001C081E0DF91CF91B6
:101000001F910F9108950FB6F8940F92FC01828DF5
:101010000F900FBE0895FC01828D0895CF93DF934A
:10102000EC01888199810E94AE02CE010E94AE023D
:10103000DF91CF910895FC01928D81E0911180E0C4
:101040000895FC01228D81E0938D291380E008959D
:10105000CF93DF93C0E6D0E00E942C03CE010E9424
:1010600030038FEF99E6A8E181509040A040E1F76E
:1010700000C0000080ED97E00E94060CEDCFCF93FA
:10108000DF93CCE6D0E0809120038F5F8093200334
:101090000E942C03CE010E94300380912003805DCA
:1010A0000E94F90284EF91E00E94060CECCFAF920F
:1010B000BF92CF92DF92EF92FF920F930E94E802CD
:1010C0008FE398E068E770E045E550E020E030E02D
:1010D00001E0EE24FF24CC24DD24AA24BB240E94BA
:1010E000BF0888E298E06EE770E045E550E020E058
:1010F00030E002E00E94BF080E94280A80E090E0F1
:101100000F91FF90EF90DF90CF90BF90AF90089538
:10111000CF93DF93EC01E0912103F09122039383BD
:1011200082838091250390912603C817D90768F41C
:1011300080914D0390914E036091210370912203A1
:101140006E5F7F4F0E94850317C080914F0390917F
:10115000500360912103709122036E5F7F4F0E94C4
:1011600085038091890090918A00C817D90720F4DF
:10117000D0938A00C0938900DF91CF9108952F9278
:101180003F924F925F926F927F928F929F92BF9207
:10119000CF92DF92EF92FF920F931F93CF93DF9343
:1011A0001C013B01EA012901B02E470181E290E0D8
:1011B0000E948002082F192F0115110509F4DFC0C4
:1011C000C114D10409F0F2C0CE010E948002C82EE1
:1011D000D92EF801878B908FC114D10429F4C8014E
:1011E0000E94AE028FEFD0C08C2D9D2D65EA70E07D
:1011F0007E014C2F5F2D0E94930D2197F801878966
:10120000908DC80FD91FC8014996B30148E050E03E
:101210000E949A0DF80110A2CB2CFB2DF33018F090
:10122000CC246894C1F8F801C68AEE24FF2468949F
:10123000E1F8E00EF11EC7010E945A03C8010C96A6
:101240000E945A03F8011187008783E090E08C190F
:10125000910995878487138B028BCE01B101A2017E
:101260000E94EA03F801918380838114910419F0AC
:10127000F401118300830FB6F8940F92809152030A
:101280008F5F8093520380912103909122030097F6
:10129000A1F5109322030093210380915203813022
:1012A000D9F5C9E2D3E0CE010E944C03CE010996E4
:1012B0000E944C03CE0142960E944C03C0E6D3E04C
:1012C000CE010E944C030F2EF9E6CF2EF3E0DF2E65
:1012D000F02DC6010E944C0384E493E00E944C036D
:1012E00085E593E00E944C03D0935003C0934F03D5
:1012F000D0924E03C0924D030FC0809153038823B8
:1013000059F4E0912103F09122038689B81620F068
:101310001093220300932103F801868990915F03C3
:10132000981710F480935F0390915E039F5F9093F2
:101330005E0390912803981710F48093280390E09F
:101340009C01220F331F220F331F220F331F820FE6
:10135000931F875D9C4FB7010E945E030F900FBEE5
:1013600080915303882369F0E0912103F0912203D7
:1013700086898B1540F40E946B0481E005C08FEFD5
:1013800003C081E001C081E0DF91CF911F910F91F7
:10139000FF90EF90DF90CF90BF909F908F907F90C5
:1013A0006F905F904F903F902F900895F801D08EEE
:1013B000C78A1ACFEF92FF920F931F93CF93DF93B9
:1013C000EC010FB6F8940F928091210390912203C3
:1013D000C817D90719F0209741F402C0C0E0D0E047
:1013E000009121031091220301C08E01EE24FF24FD
:1013F0006894E1F8E00EF11EC7010E94C403F801F1
:1014000084899589009721F0C8010C960E94C40335
:1014100085E593E0B7010E945E03809154038F5FDE
:101420008093540380915E038F5F80935E030F90DF
:101430000FBE80915303882321F0209711F40E945E
:101440006B04DF91CF911F910F91FF90EF90089562
:10145000AF92BF92CF92DF92EF92FF920F938BECFD
:101460009BE064E870E045E550E020E030E000E01B
:10147000EE24FF24CC24DD24AA24BB240E94BF0830
:10148000813049F4F894809353031092260310920C
:1014900025030E9435040F91FF90EF90DF90CF90CD
:1014A000BF90AF900895F894109253030E946A047D
:1014B0000895809127038F5F8093270308950FB6C7
:1014C000F8940F9220912503309126030F900FBEC0
:1014D000822F932F08952091250330912603822F88
:1014E000932F08958091520308950F931F93CF93E4
:1014F000DF9380912703882309F0B3C080912503EF
:101500009091260301969093260380932503809162
:10151000250390912603009799F580914F039091B0
:10152000500320914D0330914E033093500320938C
:101530004F0390934E0380934D03809124038F5F5C
:1015400080932403E0914F03F0915003808188231E
:1015500039F48FEF9FEF90938A008093890010C039
:10156000E0914F03F09150030580F681E02D068055
:10157000F781E02D8281938190938A008093890086
:1015800020912503309126038091890090918A0053
:101590002817390708F46AC0E0914F03F09150030F
:1015A0008081882399F0E0914F03F09150030580EA
:1015B000F681E02DC681D7818A819B812091250308
:1015C0003091260328173907F8F419C08FEF9FEFE1
:1015D00090938A008093890049C0E0914F03F09175
:1015E00050030580F681E02DC681D7818A819B81D9
:1015F00020912503309126032817390728F490936A
:101600008A008093890032C08E010E5F1F4FC8018F
:101610000E94C4038C899D89009721F0CE010C960D
:101620000E94C4038E8990912803981710F4809328
:10163000280390E09C01220F331F220F331F220F3B
:10164000331F820F931F875D9C4FB8010E945E037A
:10165000E0914F03F09150038081882309F0BDCFC2
:10166000B5CF809151038F5F80935103DF91CF916C
:101670001F910F910895AF92BF92CF92DF92EF9298
:10168000FF920F931F93CF93DF930FB6F8940F92AF
:10169000809127038150809327038091270388231B
:1016A00009F069C080915203882381F567C0D60193
:1016B000ED91FC91C681D781CE010C960E94C403A6
:1016C0008E010E5F1F4FC8010E94C4038E89909146
:1016D0002803981710F48093280390E09C01220FB0
:1016E000331F220F331F220F331F820F931F875D7B
:1016F0009C4FB8010E945E03E0912103F091220308
:101700009E898689981788F0BA2C0FC0BB240F2EAB
:10171000F4E4EF2EF3E0FF2EF02D0F2EF9E4CF2EA0
:10172000F3E0DF2EF02DAA24A394F7018081882313
:1017300009F0BDCF80915103882381F0809151033E
:10174000882399F00E94750A8091510381508093FB
:101750005103809151038823A9F707C0FB2DF13075
:1017600021F080912303813041F4109223030E94E1
:101770006B0481E003C080E001C080E00F900FBEE9
:10178000DF91CF911F910F91FF90EF90DF90CF905D
:10179000BF90AF900895CF92DF92FF920F931F9367
:1017A000CF93DF9305E513E00F2EFAE5CF2EF3E09C
:1017B000DF2EF02D809154038823E1F30E94590A13
:1017C000D801FC900E943B0BFF20A1F30FB6F894C8
:1017D0000F92D601ED91FC91C681D781CE01029680
:1017E0000E94C403809152038150809352038091E0
:1017F00054038150809354030F900FBE8F89988DAE
:101800000E94AE02CE010E94AE02D4CF0F931F936E
:10181000CF93DF93EC010097B1F00E94590A009139
:1018200025031091260380912103909122030296B3
:101830000E94C403CE01800F911F0E9488080E945D
:101840003B0B882311F40E946B04DF91CF911F9111
:101850000F9108950F931F93CF93DF938C01EB01AA
:101860000E94590AF80180819181C80FD91F2091E7
:101870002503309126032817390768F4C817D907BC
:1018800050F58091250390912603D183C0838C1756
:101890009D07B0F40BC0C817D907C8F08091250385
:1018A000909126038C179D0790F015C0809121031D
:1018B0009091220302960E94C403CE010E948808E0
:1018C0000E943B0B882359F40E946B0408C0F80166
:1018D000D183C083EBCFF801D183C083F1CFDF91F7
:1018E000CF911F910F91089580912703882399F438
:1018F0008091280390E0FC01EE0FFF1FEE0FFF1F09
:10190000EE0FFF1F8E0F9F1FFC01E75DFC4F8081D4
:10191000882329F01DC081E080932303089529E2E4
:1019200033E080912803815080932803809128031D
:1019300090E0FC01EE0FFF1FEE0FFF1FEE0FFF1FE9
:101940008E0F9F1FF901E80FF91F8081882349F34B
:101950008091280390E09C01220F331F220F331F38
:10196000220F331F280F391FD901A75DBC4F1196D5
:10197000ED91FC9112970280F381E02D1296FC9379
:10198000EE931197245D3C4FE217F30729F422816F
:101990003381FD0132832183FC01EE0FFF1FEE0F27
:1019A000FF1FEE0FFF1F8E0F9F1FFC01E75DFC4F17
:1019B0000180F281E02D86819781909322038093AC
:1019C00021030895CF93DF93EB0160912103709180
:1019D0002203645F7F4F0E948503809121039091D1
:1019E000220302960E94C40380912503909126034E
:1019F0008C0F9D1F0E948808DF91CF9108950F934F
:101A00001F93CF93DF93DC011596ED91FC91169710
:101A1000C681D7818E01045F1F4FC8010E94C40395
:101A2000809127038823E9F48E010E5F1F4FC801C0
:101A30000E94C4038E8990912803981710F4809314
:101A4000280390E09C01220F331F220F331F220F27
:101A5000331F820F931F875D9C4FB8010E945E0366
:101A600005C084E493E0B8010E945E03E091210385
:101A7000F091220381E02E899689291708F480E0ED
:101A8000DF91CF911F910F910895FC018091240364
:101A9000808380912503909126039283818308950A
:101AA000FC010FB6F8940F9280912403908198174F
:101AB00049F080912503909126032181328182177C
:101AC0009307F0F440912503509126032181328140
:101AD000DB018D919C911197421B530B48175907BD
:101AE00088F44091250350912603241B350B820F67
:101AF000931F8D939C93CF010E94450D80E003C0FE
:101B000081E001C081E00F900FBE089581E08093D5
:101B100023030895FB01DC0102C001900D924150A6
:101B20005040D8F70895DC0101C06D9341505040FA
:101B3000E0F70895FB01DC014150504048F001906E
:101B40000D920020C9F701C01D9241505040E0F7AE
:061B50000895F894FFCF98
:101B56004920616D205461736B2032004920616D0C
:101B6600205461736B2031007461736B31007461B2
:0C1B7600736B320049444C4500FFFF0037
:00000001FF
